{
  "contractName": "FlashLoan",
  "abi": [
    {
      "inputs": [
        {
          "internalType": "address",
          "name": "_addressProvider",
          "type": "address"
        }
      ],
      "stateMutability": "nonpayable",
      "type": "constructor"
    },
    {
      "inputs": [],
      "name": "ADDRESSES_PROVIDER",
      "outputs": [
        {
          "internalType": "contract IPoolAddressesProvider",
          "name": "",
          "type": "address"
        }
      ],
      "stateMutability": "view",
      "type": "function",
      "constant": true
    },
    {
      "inputs": [],
      "name": "POOL",
      "outputs": [
        {
          "internalType": "contract IPool",
          "name": "",
          "type": "address"
        }
      ],
      "stateMutability": "view",
      "type": "function",
      "constant": true
    },
    {
      "stateMutability": "payable",
      "type": "receive",
      "payable": true
    },
    {
      "inputs": [
        {
          "internalType": "address",
          "name": "asset",
          "type": "address"
        },
        {
          "internalType": "uint256",
          "name": "amount",
          "type": "uint256"
        },
        {
          "internalType": "uint256",
          "name": "premium",
          "type": "uint256"
        },
        {
          "internalType": "address",
          "name": "initiator",
          "type": "address"
        },
        {
          "internalType": "bytes",
          "name": "params",
          "type": "bytes"
        }
      ],
      "name": "executeOperation",
      "outputs": [
        {
          "internalType": "bool",
          "name": "",
          "type": "bool"
        }
      ],
      "stateMutability": "nonpayable",
      "type": "function"
    },
    {
      "inputs": [
        {
          "internalType": "address",
          "name": "_token",
          "type": "address"
        },
        {
          "internalType": "uint256",
          "name": "_amount",
          "type": "uint256"
        }
      ],
      "name": "requestFlashLoan",
      "outputs": [],
      "stateMutability": "nonpayable",
      "type": "function"
    },
    {
      "inputs": [
        {
          "internalType": "address",
          "name": "_tokenAddress",
          "type": "address"
        }
      ],
      "name": "getBalance",
      "outputs": [
        {
          "internalType": "uint256",
          "name": "",
          "type": "uint256"
        }
      ],
      "stateMutability": "view",
      "type": "function",
      "constant": true
    },
    {
      "inputs": [
        {
          "internalType": "address",
          "name": "_tokenAddress",
          "type": "address"
        }
      ],
      "name": "withdraw",
      "outputs": [],
      "stateMutability": "nonpayable",
      "type": "function"
    }
  ],
  "bytecode": "0x60c060405234801561001057600080fd5b5060405161084238038061084283398101604081905261002f916100d1565b80806001600160a01b03166080816001600160a01b031681525050806001600160a01b031663026b1d5f6040518163ffffffff1660e01b8152600401602060405180830381865afa158015610088573d6000803e3d6000fd5b505050506040513d601f19601f820116820180604052508101906100ac91906100d1565b6001600160a01b031660a0525050600080546001600160a01b03191633179055610101565b6000602082840312156100e357600080fd5b81516001600160a01b03811681146100fa57600080fd5b9392505050565b60805160a05161070f6101336000396000818161012a015281816101be0152610401015260006087015261070f6000f3fe6080604052600436106100695760003560e01c80637535d246116100435780637535d24614610118578063d54ba9541461014c578063f8b2cb4f1461016c57600080fd5b80630542975c146100755780631b11d0ff146100c657806351cff8d9146100f657600080fd5b3661007057005b600080fd5b34801561008157600080fd5b506100a97f000000000000000000000000000000000000000000000000000000000000000081565b6040516001600160a01b0390911681526020015b60405180910390f35b3480156100d257600080fd5b506100e66100e1366004610506565b61019a565b60405190151581526020016100bd565b34801561010257600080fd5b506101166101113660046105ac565b61024f565b005b34801561012457600080fd5b506100a97f000000000000000000000000000000000000000000000000000000000000000081565b34801561015857600080fd5b506101166101673660046105ce565b6103d3565b34801561017857600080fd5b5061018c6101873660046105ac565b610479565b6040519081526020016100bd565b6000806101a786886105f8565b60405163095ea7b360e01b81526001600160a01b037f000000000000000000000000000000000000000000000000000000000000000081166004830152602482018390529192509089169063095ea7b3906044016020604051808303816000875af115801561021a573d6000803e3d6000fd5b505050506040513d601f19601f8201168201806040525081019061023e919061061e565b5060019150505b9695505050505050565b6000546001600160a01b031633146102d35760405162461bcd60e51b815260206004820152602e60248201527f4f6e6c792074686520636f6e7472616374206f776e65722063616e2063616c6c60448201527f20746869732066756e6374696f6e000000000000000000000000000000000000606482015260840160405180910390fd5b6040516370a0823160e01b815230600482015281906001600160a01b0382169063a9059cbb90339083906370a0823190602401602060405180830381865afa158015610323573d6000803e3d6000fd5b505050506040513d601f19601f820116820180604052508101906103479190610640565b6040517fffffffff0000000000000000000000000000000000000000000000000000000060e085901b1681526001600160a01b03909216600483015260248201526044016020604051808303816000875af11580156103aa573d6000803e3d6000fd5b505050506040513d601f19601f820116820180604052508101906103ce919061061e565b505050565b60408051602081018252600080825291516310ac2ddf60e21b81523092859285929091906001600160a01b037f000000000000000000000000000000000000000000000000000000000000000016906342b0b77c9061043e9088908890889088908890600401610659565b600060405180830381600087803b15801561045857600080fd5b505af115801561046c573d6000803e3d6000fd5b5050505050505050505050565b6040516370a0823160e01b81523060048201526000906001600160a01b038316906370a0823190602401602060405180830381865afa1580156104c0573d6000803e3d6000fd5b505050506040513d601f19601f820116820180604052508101906104e49190610640565b92915050565b80356001600160a01b038116811461050157600080fd5b919050565b60008060008060008060a0878903121561051f57600080fd5b610528876104ea565b95506020870135945060408701359350610544606088016104ea565b9250608087013567ffffffffffffffff8082111561056157600080fd5b818901915089601f83011261057557600080fd5b81358181111561058457600080fd5b8a602082850101111561059657600080fd5b6020830194508093505050509295509295509295565b6000602082840312156105be57600080fd5b6105c7826104ea565b9392505050565b600080604083850312156105e157600080fd5b6105ea836104ea565b946020939093013593505050565b6000821982111561061957634e487b7160e01b600052601160045260246000fd5b500190565b60006020828403121561063057600080fd5b815180151581146105c757600080fd5b60006020828403121561065257600080fd5b5051919050565b60006001600160a01b03808816835260208188168185015286604085015260a06060850152855191508160a085015260005b828110156106a75786810182015185820160c00152810161068b565b828111156106b957600060c084870101525b5050601f01601f1916820160c0019050610245608083018461ffff16905256fea26469706673582212206ea2198fbc3aa0b58d1fd6402714a8d87c22e152f901136419a5028411e6edd364736f6c634300080a0033",
  "immutableReferences": {
    "92": [
      {
        "length": 32,
        "start": 135
      }
    ],
    "96": [
      {
        "length": 32,
        "start": 298
      },
      {
        "length": 32,
        "start": 446
      },
      {
        "length": 32,
        "start": 1025
      }
    ]
  },
  "source": "// contracts/FlashLoan.sol\n// SPDX-License-Identifier: MIT\npragma solidity 0.8.10;\n\nimport \"@aave/core-v3/contracts/flashloan/base/FlashLoanSimpleReceiverBase.sol\";\nimport \"@aave/core-v3/contracts/interfaces/IPoolAddressesProvider.sol\";\nimport \"@aave/core-v3/contracts/dependencies/openzeppelin/contracts/IERC20.sol\";\n\ncontract FlashLoan is FlashLoanSimpleReceiverBase {\n    address payable owner;\n\n    constructor(address _addressProvider)\n        FlashLoanSimpleReceiverBase(IPoolAddressesProvider(_addressProvider))\n    {\n        owner = payable(msg.sender);\n    }\n\n    /**\n        This function is called after your contract has received the flash loaned amount\n     */\n    function executeOperation(\n        address asset,\n        uint256 amount,\n        uint256 premium,\n        address initiator,\n        bytes calldata params\n    ) external override returns (bool) {\n\n        uint256 amountOwed = amount + premium;\n        IERC20(asset).approve(address(POOL), amountOwed);\n\n        return true;\n    }\n\n    function requestFlashLoan(address _token, uint256 _amount) public {\n        address receiverAddress = address(this);\n        address asset = _token;\n        uint256 amount = _amount;\n        bytes memory params = \"\";\n        uint16 referralCode = 0;\n\n        POOL.flashLoanSimple(\n            receiverAddress,\n            asset,\n            amount,\n            params,\n            referralCode\n        );\n    }\n\n    function getBalance(address _tokenAddress) external view returns (uint256) {\n        return IERC20(_tokenAddress).balanceOf(address(this));\n    }\n\n    function withdraw(address _tokenAddress) external onlyOwner {\n        IERC20 token = IERC20(_tokenAddress);\n        token.transfer(msg.sender, token.balanceOf(address(this)));\n    }\n\n    modifier onlyOwner() {\n        require(\n            msg.sender == owner,\n            \"Only the contract owner can call this function\"\n        );\n        _;\n    }\n\n    receive() external payable {}\n}",
  "sourcePath": "/home/rayzia/Desktop/flashloan/contracts/FlashLoan.sol",
  "compiler": {
    "name": "solc",
    "version": "0.8.10+commit.fc410830.Emscripten.clang"
  },
  "schemaVersion": "3.4.10",
  "updatedAt": "2022-12-02T06:31:01.634Z",
  "networkType": "ethereum",
  "devdoc": {
    "kind": "dev",
    "methods": {},
    "version": 1
  },
  "userdoc": {
    "kind": "user",
    "methods": {
      "executeOperation(address,uint256,uint256,address,bytes)": {
        "notice": "This function is called after your contract has received the flash loaned amount"
      }
    },
    "version": 1
  }
}